{
  "address": "0xf6A981B3cc55f7370195A22cF719a42BB728A84c",
  "abi": [
    {
      "inputs": [
        {
          "internalType": "bytes21",
          "name": "_appId",
          "type": "bytes21"
        },
        {
          "internalType": "address",
          "name": "_governor",
          "type": "address"
        }
      ],
      "stateMutability": "nonpayable",
      "type": "constructor"
    },
    {
      "inputs": [],
      "name": "EnforcedPause",
      "type": "error"
    },
    {
      "inputs": [],
      "name": "ExpectedPause",
      "type": "error"
    },
    {
      "inputs": [
        {
          "internalType": "address",
          "name": "owner",
          "type": "address"
        }
      ],
      "name": "OwnableInvalidOwner",
      "type": "error"
    },
    {
      "inputs": [
        {
          "internalType": "address",
          "name": "account",
          "type": "address"
        }
      ],
      "name": "OwnableUnauthorizedAccount",
      "type": "error"
    },
    {
      "inputs": [],
      "name": "ReentrancyGuardReentrantCall",
      "type": "error"
    },
    {
      "anonymous": false,
      "inputs": [
        {
          "indexed": false,
          "internalType": "uint256",
          "name": "newPeriod",
          "type": "uint256"
        }
      ],
      "name": "ExpirationPeriodUpdated",
      "type": "event"
    },
    {
      "anonymous": false,
      "inputs": [
        {
          "indexed": true,
          "internalType": "uint256",
          "name": "vaultProposalId",
          "type": "uint256"
        },
        {
          "indexed": true,
          "internalType": "uint256",
          "name": "governanceProposalId",
          "type": "uint256"
        }
      ],
      "name": "GovernanceProposalCreated",
      "type": "event"
    },
    {
      "anonymous": false,
      "inputs": [
        {
          "indexed": true,
          "internalType": "address",
          "name": "newGovernor",
          "type": "address"
        }
      ],
      "name": "GovernorUpdated",
      "type": "event"
    },
    {
      "anonymous": false,
      "inputs": [
        {
          "indexed": true,
          "internalType": "address",
          "name": "previousOwner",
          "type": "address"
        },
        {
          "indexed": true,
          "internalType": "address",
          "name": "newOwner",
          "type": "address"
        }
      ],
      "name": "OwnershipTransferred",
      "type": "event"
    },
    {
      "anonymous": false,
      "inputs": [
        {
          "indexed": false,
          "internalType": "address",
          "name": "account",
          "type": "address"
        }
      ],
      "name": "Paused",
      "type": "event"
    },
    {
      "anonymous": false,
      "inputs": [
        {
          "indexed": true,
          "internalType": "uint256",
          "name": "proposalId",
          "type": "uint256"
        },
        {
          "indexed": true,
          "internalType": "address",
          "name": "approver",
          "type": "address"
        }
      ],
      "name": "ProposalApproved",
      "type": "event"
    },
    {
      "anonymous": false,
      "inputs": [
        {
          "indexed": true,
          "internalType": "uint256",
          "name": "proposalId",
          "type": "uint256"
        }
      ],
      "name": "ProposalExpired",
      "type": "event"
    },
    {
      "anonymous": false,
      "inputs": [
        {
          "indexed": true,
          "internalType": "uint256",
          "name": "proposalId",
          "type": "uint256"
        },
        {
          "indexed": true,
          "internalType": "address",
          "name": "rejecter",
          "type": "address"
        }
      ],
      "name": "ProposalRejected",
      "type": "event"
    },
    {
      "anonymous": false,
      "inputs": [
        {
          "indexed": true,
          "internalType": "uint256",
          "name": "proposalId",
          "type": "uint256"
        },
        {
          "indexed": true,
          "internalType": "address",
          "name": "requester",
          "type": "address"
        },
        {
          "indexed": false,
          "internalType": "string",
          "name": "sqlQuery",
          "type": "string"
        }
      ],
      "name": "ProposalSubmitted",
      "type": "event"
    },
    {
      "anonymous": false,
      "inputs": [
        {
          "indexed": true,
          "internalType": "uint256",
          "name": "proposalId",
          "type": "uint256"
        },
        {
          "indexed": true,
          "internalType": "address",
          "name": "requester",
          "type": "address"
        }
      ],
      "name": "QueryCompleted",
      "type": "event"
    },
    {
      "anonymous": false,
      "inputs": [
        {
          "indexed": false,
          "internalType": "address",
          "name": "account",
          "type": "address"
        }
      ],
      "name": "Unpaused",
      "type": "event"
    },
    {
      "inputs": [],
      "name": "appId",
      "outputs": [
        {
          "internalType": "bytes21",
          "name": "",
          "type": "bytes21"
        }
      ],
      "stateMutability": "view",
      "type": "function"
    },
    {
      "inputs": [
        {
          "internalType": "uint256",
          "name": "proposalId",
          "type": "uint256"
        }
      ],
      "name": "approveProposal",
      "outputs": [],
      "stateMutability": "nonpayable",
      "type": "function"
    },
    {
      "inputs": [],
      "name": "checkAndUpdateExpiredProposals",
      "outputs": [],
      "stateMutability": "nonpayable",
      "type": "function"
    },
    {
      "inputs": [
        {
          "internalType": "uint256",
          "name": "",
          "type": "uint256"
        }
      ],
      "name": "completedQueries",
      "outputs": [
        {
          "internalType": "uint256",
          "name": "proposalId",
          "type": "uint256"
        },
        {
          "internalType": "string",
          "name": "originalQuery",
          "type": "string"
        },
        {
          "internalType": "string",
          "name": "publicKey",
          "type": "string"
        },
        {
          "internalType": "string",
          "name": "encryptedResult",
          "type": "string"
        },
        {
          "internalType": "uint256",
          "name": "completedTimestamp",
          "type": "uint256"
        }
      ],
      "stateMutability": "view",
      "type": "function"
    },
    {
      "inputs": [
        {
          "internalType": "uint256",
          "name": "proposalId",
          "type": "uint256"
        },
        {
          "internalType": "string",
          "name": "encryptedResult",
          "type": "string"
        }
      ],
      "name": "consumeProposal",
      "outputs": [],
      "stateMutability": "nonpayable",
      "type": "function"
    },
    {
      "inputs": [
        {
          "internalType": "uint256",
          "name": "proposalId",
          "type": "uint256"
        }
      ],
      "name": "createGovernanceProposal",
      "outputs": [],
      "stateMutability": "nonpayable",
      "type": "function"
    },
    {
      "inputs": [],
      "name": "defaultExpirationPeriod",
      "outputs": [
        {
          "internalType": "uint256",
          "name": "",
          "type": "uint256"
        }
      ],
      "stateMutability": "view",
      "type": "function"
    },
    {
      "inputs": [
        {
          "internalType": "uint256",
          "name": "proposalId",
          "type": "uint256"
        },
        {
          "internalType": "uint256",
          "name": "extension",
          "type": "uint256"
        }
      ],
      "name": "extendProposalExpiration",
      "outputs": [],
      "stateMutability": "nonpayable",
      "type": "function"
    },
    {
      "inputs": [
        {
          "internalType": "uint256",
          "name": "offset",
          "type": "uint256"
        },
        {
          "internalType": "uint256",
          "name": "limit",
          "type": "uint256"
        }
      ],
      "name": "getApprovedProposals",
      "outputs": [
        {
          "components": [
            {
              "internalType": "uint256",
              "name": "id",
              "type": "uint256"
            },
            {
              "internalType": "address",
              "name": "requester",
              "type": "address"
            },
            {
              "internalType": "string",
              "name": "sqlQuery",
              "type": "string"
            },
            {
              "internalType": "string",
              "name": "publicKey",
              "type": "string"
            },
            {
              "internalType": "uint256",
              "name": "timestamp",
              "type": "uint256"
            },
            {
              "internalType": "uint256",
              "name": "expirationTime",
              "type": "uint256"
            },
            {
              "internalType": "enum Vault.ProposalStatus",
              "name": "status",
              "type": "uint8"
            },
            {
              "internalType": "uint256",
              "name": "governanceProposalId",
              "type": "uint256"
            }
          ],
          "internalType": "struct Vault.QueryProposal[]",
          "name": "",
          "type": "tuple[]"
        }
      ],
      "stateMutability": "view",
      "type": "function"
    },
    {
      "inputs": [
        {
          "internalType": "uint256",
          "name": "proposalId",
          "type": "uint256"
        }
      ],
      "name": "getCompletedQuery",
      "outputs": [
        {
          "components": [
            {
              "internalType": "uint256",
              "name": "proposalId",
              "type": "uint256"
            },
            {
              "internalType": "string",
              "name": "originalQuery",
              "type": "string"
            },
            {
              "internalType": "string",
              "name": "publicKey",
              "type": "string"
            },
            {
              "internalType": "string",
              "name": "encryptedResult",
              "type": "string"
            },
            {
              "internalType": "uint256",
              "name": "completedTimestamp",
              "type": "uint256"
            }
          ],
          "internalType": "struct Vault.CompletedQuery",
          "name": "",
          "type": "tuple"
        }
      ],
      "stateMutability": "view",
      "type": "function"
    },
    {
      "inputs": [
        {
          "internalType": "uint256",
          "name": "proposalId",
          "type": "uint256"
        }
      ],
      "name": "getGovernanceProposalId",
      "outputs": [
        {
          "internalType": "uint256",
          "name": "",
          "type": "uint256"
        }
      ],
      "stateMutability": "view",
      "type": "function"
    },
    {
      "inputs": [
        {
          "internalType": "uint256",
          "name": "proposalId",
          "type": "uint256"
        }
      ],
      "name": "getProposal",
      "outputs": [
        {
          "components": [
            {
              "internalType": "uint256",
              "name": "id",
              "type": "uint256"
            },
            {
              "internalType": "address",
              "name": "requester",
              "type": "address"
            },
            {
              "internalType": "string",
              "name": "sqlQuery",
              "type": "string"
            },
            {
              "internalType": "string",
              "name": "publicKey",
              "type": "string"
            },
            {
              "internalType": "uint256",
              "name": "timestamp",
              "type": "uint256"
            },
            {
              "internalType": "uint256",
              "name": "expirationTime",
              "type": "uint256"
            },
            {
              "internalType": "enum Vault.ProposalStatus",
              "name": "status",
              "type": "uint8"
            },
            {
              "internalType": "uint256",
              "name": "governanceProposalId",
              "type": "uint256"
            }
          ],
          "internalType": "struct Vault.QueryProposal",
          "name": "",
          "type": "tuple"
        }
      ],
      "stateMutability": "view",
      "type": "function"
    },
    {
      "inputs": [
        {
          "internalType": "enum Vault.ProposalStatus",
          "name": "status",
          "type": "uint8"
        }
      ],
      "name": "getProposalsByStatus",
      "outputs": [
        {
          "components": [
            {
              "internalType": "uint256",
              "name": "id",
              "type": "uint256"
            },
            {
              "internalType": "address",
              "name": "requester",
              "type": "address"
            },
            {
              "internalType": "string",
              "name": "sqlQuery",
              "type": "string"
            },
            {
              "internalType": "string",
              "name": "publicKey",
              "type": "string"
            },
            {
              "internalType": "uint256",
              "name": "timestamp",
              "type": "uint256"
            },
            {
              "internalType": "uint256",
              "name": "expirationTime",
              "type": "uint256"
            },
            {
              "internalType": "enum Vault.ProposalStatus",
              "name": "status",
              "type": "uint8"
            },
            {
              "internalType": "uint256",
              "name": "governanceProposalId",
              "type": "uint256"
            }
          ],
          "internalType": "struct Vault.QueryProposal[]",
          "name": "",
          "type": "tuple[]"
        }
      ],
      "stateMutability": "view",
      "type": "function"
    },
    {
      "inputs": [
        {
          "internalType": "address",
          "name": "user",
          "type": "address"
        }
      ],
      "name": "getUserProposals",
      "outputs": [
        {
          "components": [
            {
              "internalType": "uint256",
              "name": "id",
              "type": "uint256"
            },
            {
              "internalType": "address",
              "name": "requester",
              "type": "address"
            },
            {
              "internalType": "string",
              "name": "sqlQuery",
              "type": "string"
            },
            {
              "internalType": "string",
              "name": "publicKey",
              "type": "string"
            },
            {
              "internalType": "uint256",
              "name": "timestamp",
              "type": "uint256"
            },
            {
              "internalType": "uint256",
              "name": "expirationTime",
              "type": "uint256"
            },
            {
              "internalType": "enum Vault.ProposalStatus",
              "name": "status",
              "type": "uint8"
            },
            {
              "internalType": "uint256",
              "name": "governanceProposalId",
              "type": "uint256"
            }
          ],
          "internalType": "struct Vault.QueryProposal[]",
          "name": "",
          "type": "tuple[]"
        }
      ],
      "stateMutability": "view",
      "type": "function"
    },
    {
      "inputs": [
        {
          "internalType": "uint256",
          "name": "",
          "type": "uint256"
        }
      ],
      "name": "governanceProposalsExecuted",
      "outputs": [
        {
          "internalType": "bool",
          "name": "",
          "type": "bool"
        }
      ],
      "stateMutability": "view",
      "type": "function"
    },
    {
      "inputs": [],
      "name": "governor",
      "outputs": [
        {
          "internalType": "contract IGovernor",
          "name": "",
          "type": "address"
        }
      ],
      "stateMutability": "view",
      "type": "function"
    },
    {
      "inputs": [
        {
          "internalType": "uint256",
          "name": "governanceProposalId",
          "type": "uint256"
        }
      ],
      "name": "isGovernanceProposalExecuted",
      "outputs": [
        {
          "internalType": "bool",
          "name": "",
          "type": "bool"
        }
      ],
      "stateMutability": "view",
      "type": "function"
    },
    {
      "inputs": [],
      "name": "owner",
      "outputs": [
        {
          "internalType": "address",
          "name": "",
          "type": "address"
        }
      ],
      "stateMutability": "view",
      "type": "function"
    },
    {
      "inputs": [],
      "name": "pause",
      "outputs": [],
      "stateMutability": "nonpayable",
      "type": "function"
    },
    {
      "inputs": [],
      "name": "paused",
      "outputs": [
        {
          "internalType": "bool",
          "name": "",
          "type": "bool"
        }
      ],
      "stateMutability": "view",
      "type": "function"
    },
    {
      "inputs": [
        {
          "internalType": "uint256",
          "name": "",
          "type": "uint256"
        }
      ],
      "name": "proposals",
      "outputs": [
        {
          "internalType": "uint256",
          "name": "id",
          "type": "uint256"
        },
        {
          "internalType": "address",
          "name": "requester",
          "type": "address"
        },
        {
          "internalType": "string",
          "name": "sqlQuery",
          "type": "string"
        },
        {
          "internalType": "string",
          "name": "publicKey",
          "type": "string"
        },
        {
          "internalType": "uint256",
          "name": "timestamp",
          "type": "uint256"
        },
        {
          "internalType": "uint256",
          "name": "expirationTime",
          "type": "uint256"
        },
        {
          "internalType": "enum Vault.ProposalStatus",
          "name": "status",
          "type": "uint8"
        },
        {
          "internalType": "uint256",
          "name": "governanceProposalId",
          "type": "uint256"
        }
      ],
      "stateMutability": "view",
      "type": "function"
    },
    {
      "inputs": [
        {
          "internalType": "enum Vault.ProposalStatus",
          "name": "",
          "type": "uint8"
        },
        {
          "internalType": "uint256",
          "name": "",
          "type": "uint256"
        }
      ],
      "name": "proposalsByStatus",
      "outputs": [
        {
          "internalType": "uint256",
          "name": "",
          "type": "uint256"
        }
      ],
      "stateMutability": "view",
      "type": "function"
    },
    {
      "inputs": [
        {
          "internalType": "string",
          "name": "sqlQuery",
          "type": "string"
        },
        {
          "internalType": "string",
          "name": "publicKey",
          "type": "string"
        }
      ],
      "name": "proposeQuery",
      "outputs": [
        {
          "internalType": "uint256",
          "name": "",
          "type": "uint256"
        }
      ],
      "stateMutability": "nonpayable",
      "type": "function"
    },
    {
      "inputs": [
        {
          "internalType": "uint256",
          "name": "proposalId",
          "type": "uint256"
        }
      ],
      "name": "rejectProposal",
      "outputs": [],
      "stateMutability": "nonpayable",
      "type": "function"
    },
    {
      "inputs": [],
      "name": "renounceOwnership",
      "outputs": [],
      "stateMutability": "nonpayable",
      "type": "function"
    },
    {
      "inputs": [
        {
          "internalType": "uint256",
          "name": "period",
          "type": "uint256"
        }
      ],
      "name": "setDefaultExpirationPeriod",
      "outputs": [],
      "stateMutability": "nonpayable",
      "type": "function"
    },
    {
      "inputs": [
        {
          "internalType": "address",
          "name": "_governor",
          "type": "address"
        }
      ],
      "name": "setGovernor",
      "outputs": [],
      "stateMutability": "nonpayable",
      "type": "function"
    },
    {
      "inputs": [
        {
          "internalType": "address",
          "name": "newOwner",
          "type": "address"
        }
      ],
      "name": "transferOwnership",
      "outputs": [],
      "stateMutability": "nonpayable",
      "type": "function"
    },
    {
      "inputs": [],
      "name": "unpause",
      "outputs": [],
      "stateMutability": "nonpayable",
      "type": "function"
    },
    {
      "inputs": [
        {
          "internalType": "address",
          "name": "",
          "type": "address"
        },
        {
          "internalType": "uint256",
          "name": "",
          "type": "uint256"
        }
      ],
      "name": "userProposals",
      "outputs": [
        {
          "internalType": "uint256",
          "name": "",
          "type": "uint256"
        }
      ],
      "stateMutability": "view",
      "type": "function"
    }
  ],
  "transactionHash": "0xd232a0e280bf19897af0bcdd978b9dc90c2ea5d9494e028afe170836a6536abe",
  "args": [
    "0x123456789012345678901234567890123456789012",
    "0xB1344b6d9caBF428A9458fE1B61485eE6089C8D8"
  ],
  "numDeployments": 8,
  "solcInputHash": "4ad454ac8730f54cecec2392659b333d",
  "bytecode": "0x60806040523480156200001157600080fd5b50604051620035f1380380620035f18339810160408190526200003491620001c4565b600160005533806200006157604051631e4fbdf760e01b8152600060048201526024015b60405180910390fd5b6200006c816200016a565b506001600160581b03198216620000c65760405162461bcd60e51b815260206004820152601460248201527f41707049642063616e6e6f74206265207a65726f000000000000000000000000604482015260640162000058565b6001600160a01b0381166200011e5760405162461bcd60e51b815260206004820152601f60248201527f476f7665726e6f7220616464726573732063616e6e6f74206265207a65726f00604482015260640162000058565b600380546001600160a81b03191660589390931c9290921790915562093a806004556000600255600580546001600160a01b0319166001600160a01b039092169190911790556200021a565b600180546001600160a01b03838116610100818102610100600160a81b031985161790945560405193909204169182907f8be0079c531659141344cd1fd0a4f28419497f9722a3daafe3b4186f6b6457e090600090a35050565b60008060408385031215620001d857600080fd5b82516001600160581b031981168114620001f157600080fd5b60208401519092506001600160a01b03811681146200020f57600080fd5b809150509250929050565b6133c7806200022a6000396000f3fe608060405234801561001057600080fd5b50600436106101da5760003560e01c806398951b5611610104578063c42cf535116100a2578063dc19e4d911610071578063dc19e4d914610460578063ef78411114610483578063f2fde38b1461048c578063f500d36d1461049f57600080fd5b8063c42cf535146103f6578063c7f758a814610409578063d10b994514610429578063d41327c51461043c57600080fd5b8063a0552cb5116100de578063a0552cb5146103aa578063a51388c8146103bd578063bc28d878146103d0578063bf98f1f5146103e357600080fd5b806398951b561461037c5780639906ee2b1461038f5780639c3c24761461039757600080fd5b80635c975abb1161017c57806380afdea81161014b57806380afdea8146103215780638456cb591461034b5780638da5cb5b146103535780639106447c1461036957600080fd5b80635c975abb146102cb5780635f113bd2146102d6578063715018a6146102f957806378ef11381461030157600080fd5b80631b31527f116101b85780631b31527f1461025a57806324dcbb971461027b5780633bc391b9146102ae5780633f4ba83a146102c357600080fd5b8063013cf08b146101df5780630a9c6db21461020f5780630c340a241461022f575b600080fd5b6101f26101ed366004612aa4565b6104b2565b604051610206989796959493929190612b3b565b60405180910390f35b61022261021d366004612aa4565b610614565b6040516102069190612ba9565b600554610242906001600160a01b031681565b6040516001600160a01b039091168152602001610206565b61026d610268366004612c3e565b610897565b604051908152602001610206565b61029e610289366004612aa4565b600a6020526000908152604090205460ff1681565b6040519015158152602001610206565b6102c16102bc366004612c68565b6108c8565b005b6102c16109b6565b60015460ff1661029e565b61026d6102e4366004612aa4565b60009081526006602052604090206007015490565b6102c16109c8565b61031461030f366004612c8a565b6109da565b6040516102069190612d36565b60035461032e9060581b81565b6040516affffffffffffffffffffff199091168152602001610206565b6102c1610cad565b60015461010090046001600160a01b0316610242565b6102c1610377366004612aa4565b610cbd565b6102c161038a366004612aa4565b610db5565b6102c1611052565b61026d6103a5366004612de1565b611066565b61026d6103b8366004612e5c565b61139e565b6103146103cb366004612e78565b6113ba565b6102c16103de366004612aa4565b61165b565b6103146103f1366004612c68565b611782565b6102c1610404366004612c8a565b611a86565b61041c610417366004612aa4565b611b2e565b6040516102069190612e93565b6102c1610437366004612ea6565b611d1a565b61044f61044a366004612aa4565b6120df565b604051610206959493929190612ef2565b61029e61046e366004612aa4565b6000908152600a602052604090205460ff1690565b61026d60045481565b6102c161049a366004612c8a565b6122a6565b6102c16104ad366004612aa4565b6122e1565b60066020526000908152604090208054600182015460028301805492936001600160a01b03909216926104e490612f44565b80601f016020809104026020016040519081016040528092919081815260200182805461051090612f44565b801561055d5780601f106105325761010080835404028352916020019161055d565b820191906000526020600020905b81548152906001019060200180831161054057829003601f168201915b50505050509080600301805461057290612f44565b80601f016020809104026020016040519081016040528092919081815260200182805461059e90612f44565b80156105eb5780601f106105c0576101008083540402835291602001916105eb565b820191906000526020600020905b8154815290600101906020018083116105ce57829003601f168201915b5050506004840154600585015460068601546007909601549495919490935060ff909116915088565b6106466040518060a0016040528060008152602001606081526020016060815260200160608152602001600081525090565b60008281526009602052604081205490036106a85760405162461bcd60e51b815260206004820152601e60248201527f436f6d706c6574656420717565727920646f6573206e6f74206578697374000060448201526064015b60405180910390fd5b600960008381526020019081526020016000206040518060a0016040529081600082015481526020016001820180546106e090612f44565b80601f016020809104026020016040519081016040528092919081815260200182805461070c90612f44565b80156107595780601f1061072e57610100808354040283529160200191610759565b820191906000526020600020905b81548152906001019060200180831161073c57829003601f168201915b5050505050815260200160028201805461077290612f44565b80601f016020809104026020016040519081016040528092919081815260200182805461079e90612f44565b80156107eb5780601f106107c0576101008083540402835291602001916107eb565b820191906000526020600020905b8154815290600101906020018083116107ce57829003601f168201915b5050505050815260200160038201805461080490612f44565b80601f016020809104026020016040519081016040528092919081815260200182805461083090612f44565b801561087d5780601f106108525761010080835404028352916020019161087d565b820191906000526020600020905b81548152906001019060200180831161086057829003601f168201915b505050505081526020016004820154815250509050919050565b600860205281600052604060002081815481106108b357600080fd5b90600052602060002001600091509150505481565b6108d06125c0565b600082815260066020526040812080549091036108ff5760405162461bcd60e51b815260040161069f90612f7e565b6000821161094f5760405162461bcd60e51b815260206004820181905260248201527f457874656e73696f6e206d7573742062652067726561746572207468616e2030604482015260640161069f565b6301e133808211156109985760405162461bcd60e51b8152602060048201526012602482015271457874656e73696f6e20746f6f206c6f6e6760701b604482015260640161069f565b818160050160008282546109ac9190612fcb565b9091555050505050565b6109be6125c0565b6109c66125f3565b565b6109d06125c0565b6109c66000612645565b60606001600160a01b038216610a295760405162461bcd60e51b8152602060048201526014602482015273496e76616c69642075736572206164647265737360601b604482015260640161069f565b6001600160a01b0382166000908152600860205260408120805490919067ffffffffffffffff811115610a5e57610a5e612fde565b604051908082528060200260200182016040528015610a9757816020015b610a84612a45565b815260200190600190039081610a7c5790505b50905060005b8254811015610ca55760066000848381548110610abc57610abc612ff4565b6000918252602080832090910154835282810193909352604091820190208151610100810183528154815260018201546001600160a01b0316938101939093526002810180549192840191610b1090612f44565b80601f0160208091040260200160405190810160405280929190818152602001828054610b3c90612f44565b8015610b895780601f10610b5e57610100808354040283529160200191610b89565b820191906000526020600020905b815481529060010190602001808311610b6c57829003601f168201915b50505050508152602001600382018054610ba290612f44565b80601f0160208091040260200160405190810160405280929190818152602001828054610bce90612f44565b8015610c1b5780601f10610bf057610100808354040283529160200191610c1b565b820191906000526020600020905b815481529060010190602001808311610bfe57829003601f168201915b5050509183525050600482810154602083015260058301546040830152600683015460609092019160ff1690811115610c5657610c56612b03565b6004811115610c6757610c67612b03565b8152602001600782015481525050828281518110610c8757610c87612ff4565b60200260200101819052508080610c9d9061300a565b915050610a9d565b509392505050565b610cb56125c0565b6109c661269f565b610cc56125c0565b60008111610d265760405162461bcd60e51b815260206004820152602860248201527f45787069726174696f6e20706572696f64206d75737420626520677265617465604482015267072207468616e20360c41b606482015260840161069f565b6301e13380811115610d7a5760405162461bcd60e51b815260206004820152601a60248201527f45787069726174696f6e20706572696f6420746f6f206c6f6e67000000000000604482015260640161069f565b60048190556040518181527f76d8424a884e28db7e90e432ac1d427e98ff82b7a50c54396ec417873a8a98559060200160405180910390a150565b610dbd6126da565b610dc56126fe565b60008181526006602052604081208054909103610df45760405162461bcd60e51b815260040161069f90612f7e565b6000600682015460ff166004811115610e0f57610e0f612b03565b14610e2c5760405162461bcd60e51b815260040161069f90613023565b80600501544210610e725760405162461bcd60e51b815260206004820152601060248201526f141c9bdc1bdcd85b08195e1c1a5c995960821b604482015260640161069f565b8060070154600003610ec65760405162461bcd60e51b815260206004820152601d60248201527f4e6f20676f7665726e616e63652070726f706f73616c20657869737473000000604482015260640161069f565b6005546001600160a01b03163314610f205760405162461bcd60e51b815260206004820152601960248201527f4f6e6c7920676f7665726e6f722063616e20617070726f766500000000000000604482015260640161069f565b60078101546000908152600a602052604090205460ff1615610f845760405162461bcd60e51b815260206004820152601960248201527f50726f706f73616c20616c726561647920657865637574656400000000000000604482015260640161069f565b6006810180546001919060ff19168280021790555060078101546000908152600a60205260408120805460ff19166001179055610fc19083612728565b60076020527fb39221ace053465ec3453ce2b36430bd138b997ecea25c1043da0c366812b828805460018101825560009182527fb2401e68d452ad3af4aed95d6e19d1a690ed00a9a5bee1b2b0a83b6028446a4f01839055604051339184917f049c28adfe50bcf1b76fd95273b6a24566b9f377e52fddc653c3355248dad07a9190a35061104f6001600055565b50565b61105c600061281e565b6109c6600161281e565b60006110706126da565b6110786126fe565b836110c55760405162461bcd60e51b815260206004820152601960248201527f53514c2071756572792063616e6e6f7420626520656d70747900000000000000604482015260640161069f565b6103e884111561110c5760405162461bcd60e51b815260206004820152601260248201527153514c20717565727920746f6f206c6f6e6760701b604482015260640161069f565b816111595760405162461bcd60e51b815260206004820152601a60248201527f5075626c6963206b65792063616e6e6f7420626520656d707479000000000000604482015260640161069f565b600280549060006111698361300a565b90915550506002546040805161010081018252828152336020808301919091528251601f890182900482028101820184528881526000938301918a908a9081908401838280828437600092019190915250505090825250604080516020601f890181900481028201810190925287815291810191908890889081908401838280828437600092019190915250505090825250426020820181905260045460409092019161121591612fcb565b815260200160008152600060209182018190528481526006825260409081902083518155918301516001830180546001600160a01b0319166001600160a01b0390921691909117905582015191925082916002820190611275908261309f565b506060820151600382019061128a908261309f565b506080820151816004015560a0820151816005015560c08201518160060160006101000a81548160ff021916908360048111156112c9576112c9612b03565b021790555060e091909101516007909101557f6d5257204ebe7d88fd91ae87941cb2dd9d8062b64ae5a2bd2d28ec40b9fbf6df805460018082019092557fd9e659536a2f603b20938d4b8c1783b32b56367744f7b53b49ad35612a31e7ca018390553360008181526008602090815260408083208054958601815583529120909201849055905183907fba63161e1c7e096aaf63cb63b137eeea26b870df0007c6e2ad029bae55d6517990611381908b908b9061315f565b60405180910390a35090506113966001600055565b949350505050565b600760205281600052604060002081815481106108b357600080fd5b60606000600760008460048111156113d4576113d4612b03565b60048111156113e5576113e5612b03565b815260200190815260200160002090506000818054905067ffffffffffffffff81111561141457611414612fde565b60405190808252806020026020018201604052801561144d57816020015b61143a612a45565b8152602001906001900390816114325790505b50905060005b8254811015610ca5576006600084838154811061147257611472612ff4565b6000918252602080832090910154835282810193909352604091820190208151610100810183528154815260018201546001600160a01b03169381019390935260028101805491928401916114c690612f44565b80601f01602080910402602001604051908101604052809291908181526020018280546114f290612f44565b801561153f5780601f106115145761010080835404028352916020019161153f565b820191906000526020600020905b81548152906001019060200180831161152257829003601f168201915b5050505050815260200160038201805461155890612f44565b80601f016020809104026020016040519081016040528092919081815260200182805461158490612f44565b80156115d15780601f106115a6576101008083540402835291602001916115d1565b820191906000526020600020905b8154815290600101906020018083116115b457829003601f168201915b5050509183525050600482810154602083015260058301546040830152600683015460609092019160ff169081111561160c5761160c612b03565b600481111561161d5761161d612b03565b815260200160078201548152505082828151811061163d5761163d612ff4565b602002602001018190525080806116539061300a565b915050611453565b6116636125c0565b61166b6126da565b6116736126fe565b600081815260066020526040812080549091036116a25760405162461bcd60e51b815260040161069f90612f7e565b6000600682015460ff1660048111156116bd576116bd612b03565b146116da5760405162461bcd60e51b815260040161069f90613023565b60068101805460ff191660031790556116f4600083612728565b60076020527f3be6fd20d5acfde5b873b48692cd31f4d3c7e8ee8a813af4696af8859e5ca6c6805460018101825560009182527f48e46e930050f65986e1bdb8c4b43524c07bb9ab6005239ef508bfb4ceceb30101839055604051339184917fff556cafc8033c441c6fea0e40d12f0ec0c8c9168f6bac576e84800331b1a52f9190a35061104f6001600055565b600160005260076020527fb39221ace053465ec3453ce2b36430bd138b997ecea25c1043da0c366812b82880546060919084106117f35760408051600080825260208201909252906117ea565b6117d7612a45565b8152602001906001900390816117cf5790505b50915050611a80565b805460009061180390869061318e565b9050838111156118105750825b60008167ffffffffffffffff81111561182b5761182b612fde565b60405190808252806020026020018201604052801561186457816020015b611851612a45565b8152602001906001900390816118495790505b50905060005b82811015611a7a576006600085611881848b612fcb565b8154811061189157611891612ff4565b6000918252602080832090910154835282810193909352604091820190208151610100810183528154815260018201546001600160a01b03169381019390935260028101805491928401916118e590612f44565b80601f016020809104026020016040519081016040528092919081815260200182805461191190612f44565b801561195e5780601f106119335761010080835404028352916020019161195e565b820191906000526020600020905b81548152906001019060200180831161194157829003601f168201915b5050505050815260200160038201805461197790612f44565b80601f01602080910402602001604051908101604052809291908181526020018280546119a390612f44565b80156119f05780601f106119c5576101008083540402835291602001916119f0565b820191906000526020600020905b8154815290600101906020018083116119d357829003601f168201915b5050509183525050600482810154602083015260058301546040830152600683015460609092019160ff1690811115611a2b57611a2b612b03565b6004811115611a3c57611a3c612b03565b8152602001600782015481525050828281518110611a5c57611a5c612ff4565b60200260200101819052508080611a729061300a565b91505061186a565b50925050505b92915050565b611a8e6125c0565b6001600160a01b038116611ae45760405162461bcd60e51b815260206004820152601f60248201527f476f7665726e6f7220616464726573732063616e6e6f74206265207a65726f00604482015260640161069f565b600580546001600160a01b0319166001600160a01b0383169081179091556040517f386c8d5fb4be6c928b7de4c7ae0a4b2ad0d2b2a7edad65d9f0af9ba255e5121990600090a250565b611b36612a45565b6000828152600660205260408120549003611b635760405162461bcd60e51b815260040161069f90612f7e565b6000828152600660209081526040918290208251610100810184528154815260018201546001600160a01b0316928101929092526002810180549293919291840191611bae90612f44565b80601f0160208091040260200160405190810160405280929190818152602001828054611bda90612f44565b8015611c275780601f10611bfc57610100808354040283529160200191611c27565b820191906000526020600020905b815481529060010190602001808311611c0a57829003601f168201915b50505050508152602001600382018054611c4090612f44565b80601f0160208091040260200160405190810160405280929190818152602001828054611c6c90612f44565b8015611cb95780601f10611c8e57610100808354040283529160200191611cb9565b820191906000526020600020905b815481529060010190602001808311611c9c57829003601f168201915b5050509183525050600482810154602083015260058301546040830152600683015460609092019160ff1690811115611cf457611cf4612b03565b6004811115611d0557611d05612b03565b81526020016007820154815250509050919050565b611d226126da565b611d2a6126fe565b60008381526006602052604081208054909103611d595760405162461bcd60e51b815260040161069f90612f7e565b6001600682015460ff166004811115611d7457611d74612b03565b14611db95760405162461bcd60e51b8152602060048201526015602482015274141c9bdc1bdcd85b081b9bdd08185c1c1c9bdd9959605a1b604482015260640161069f565b80600501544210611dff5760405162461bcd60e51b815260206004820152601060248201526f141c9bdc1bdcd85b08195e1c1a5c995960821b604482015260640161069f565b81611e4c5760405162461bcd60e51b815260206004820181905260248201527f456e6372797074656420726573756c742063616e6e6f7420626520656d707479604482015260640161069f565b60006040518060a00160405280868152602001836002018054611e6e90612f44565b80601f0160208091040260200160405190810160405280929190818152602001828054611e9a90612f44565b8015611ee75780601f10611ebc57610100808354040283529160200191611ee7565b820191906000526020600020905b815481529060010190602001808311611eca57829003601f168201915b50505050508152602001836003018054611f0090612f44565b80601f0160208091040260200160405190810160405280929190818152602001828054611f2c90612f44565b8015611f795780601f10611f4e57610100808354040283529160200191611f79565b820191906000526020600020905b815481529060010190602001808311611f5c57829003601f168201915b5050505050815260200185858080601f0160208091040260200160405190810160405280939291908181526020018383808284376000920182905250938552505042602093840152508781526009825260409020825181559082015191925082916001820190611fe9908261309f565b5060408201516002820190611ffe908261309f565b5060608201516003820190612013908261309f565b506080919091015160049091015560068201805460ff1916600217905561203b600186612728565b60076020527fb7c774451310d1be4108bc180d1b52823cb0ee0274a6c0081bcaf94f115fb96d80546001808201835560009283527fd6de725bb48e0bc629c0e827168a68e25f0ced693aa574d8ae15b651380a01c99091018790558301546040516001600160a01b039091169187917fbf992d8243706b70d87ca62d0f26d6926cfac05b0f8f15097c0548be335436e09190a350506120da6001600055565b505050565b6009602052600090815260409020805460018201805491929161210190612f44565b80601f016020809104026020016040519081016040528092919081815260200182805461212d90612f44565b801561217a5780601f1061214f5761010080835404028352916020019161217a565b820191906000526020600020905b81548152906001019060200180831161215d57829003601f168201915b50505050509080600201805461218f90612f44565b80601f01602080910402602001604051908101604052809291908181526020018280546121bb90612f44565b80156122085780601f106121dd57610100808354040283529160200191612208565b820191906000526020600020905b8154815290600101906020018083116121eb57829003601f168201915b50505050509080600301805461221d90612f44565b80601f016020809104026020016040519081016040528092919081815260200182805461224990612f44565b80156122965780601f1061226b57610100808354040283529160200191612296565b820191906000526020600020905b81548152906001019060200180831161227957829003601f168201915b5050505050908060040154905085565b6122ae6125c0565b6001600160a01b0381166122d857604051631e4fbdf760e01b81526000600482015260240161069f565b61104f81612645565b6122e96125c0565b6122f16126da565b6122f96126fe565b600081815260066020526040812080549091036123285760405162461bcd60e51b815260040161069f90612f7e565b6000600682015460ff16600481111561234357612343612b03565b146123605760405162461bcd60e51b815260040161069f90613023565b6007810154156123be5760405162461bcd60e51b815260206004820152602360248201527f476f7665726e616e63652070726f706f73616c20616c726561647920637265616044820152621d195960ea1b606482015260840161069f565b6040805160018082528183019092526000916020808301908036833701905050905030816000815181106123f4576123f4612ff4565b6001600160a01b03929092166020928302919091019091015260408051600180825281830190925260009181602001602082028036833701905050905060008160008151811061244657612446612ff4565b6020908102919091010152604080516001808252818301909252600091816020015b60608152602001906001900390816124685750506040516024810187905290915060440160408051601f198184030181529190526020810180516001600160e01b0316634c4a8dab60e11b179052815182906000906124c9576124c9612ff4565b6020026020010181905250600085856002016040516020016124ec9291906131a1565b60408051601f1981840301815290829052600554633eaf40f160e11b83529092506000916001600160a01b0390911690637d5e81e2906125369088908890889088906004016132b6565b6020604051808303816000875af1158015612555573d6000803e3d6000fd5b505050506040513d601f19601f820116820180604052508101906125799190613362565b60078701819055604051909150819088907f9a19cf88b0f71b4ca56203453f92dd63e26bf29cae805af2f5eaa9114291643590600090a350505050505061104f6001600055565b6001546001600160a01b036101009091041633146109c65760405163118cdaa760e01b815233600482015260240161069f565b6125fb612a22565b6001805460ff191690557f5db9ee0a495bf2e6ff9c91a7834c1ba4fdd244a5e8aa4e537bd38aeae4b073aa335b6040516001600160a01b03909116815260200160405180910390a1565b600180546001600160a01b03838116610100818102610100600160a81b031985161790945560405193909204169182907f8be0079c531659141344cd1fd0a4f28419497f9722a3daafe3b4186f6b6457e090600090a35050565b6126a76126da565b6001805460ff1916811790557f62e78cea01bee320cd4e420270b5ea74000d11b0c9f74754ebdbfc544b05a25833612628565b60015460ff16156109c65760405163d93c066560e01b815260040160405180910390fd5b60026000540361272157604051633ee5aeb560e01b815260040160405180910390fd5b6002600055565b60006007600084600481111561274057612740612b03565b600481111561275157612751612b03565b8152602001908152602001600020905060005b8154811015612818578282828154811061278057612780612ff4565b90600052602060002001540361280657815482906127a09060019061318e565b815481106127b0576127b0612ff4565b90600052602060002001548282815481106127cd576127cd612ff4565b9060005260206000200181905550818054806127eb576127eb61337b565b60019003818190600052602060002001600090559055612818565b806128108161300a565b915050612764565b50505050565b60006007600083600481111561283657612836612b03565b600481111561284757612847612b03565b815260200190815260200160002090506000818054905067ffffffffffffffff81111561287657612876612fde565b60405190808252806020026020018201604052801561289f578160200160208202803683370190505b5090506000805b83548110156129335760008482815481106128c3576128c3612ff4565b9060005260206000200154905060006006600083815260200190815260200160002090508060050154421061291e578185858151811061290557612905612ff4565b60209081029190910101528361291a8161300a565b9450505b5050808061292b9061300a565b9150506128a6565b5060005b81811015612a1b57600083828151811061295357612953612ff4565b602090810291909101810151600081815260069283905260409020909101805460ff1916600417905590506129888682612728565b60076020527fb805995a7ec585a251200611a61d179cfd7fb105e1ab17dc415a7336783786f7805460018101825560009182527f6fa1f58b3824c63c18ca6e537b6f3417074dc1ba12da98b635f52a4ad36f34d40182905560405182917f88e53c486703527139dfc8d97a1e559d9bd93d3f9d52cda4e06564111e7a264391a25080612a138161300a565b915050612937565b5050505050565b60015460ff166109c657604051638dfc202b60e01b815260040160405180910390fd5b6040518061010001604052806000815260200160006001600160a01b031681526020016060815260200160608152602001600081526020016000815260200160006004811115612a9757612a97612b03565b8152602001600081525090565b600060208284031215612ab657600080fd5b5035919050565b6000815180845260005b81811015612ae357602081850181015186830182015201612ac7565b506000602082860101526020601f19601f83011685010191505092915050565b634e487b7160e01b600052602160045260246000fd5b60058110612b3757634e487b7160e01b600052602160045260246000fd5b9052565b8881526001600160a01b038816602082015261010060408201819052600090612b668382018a612abd565b90508281036060840152612b7a8189612abd565b9150508560808301528460a0830152612b9660c0830185612b19565b8260e08301529998505050505050505050565b60208152815160208201526000602083015160a06040840152612bcf60c0840182612abd565b90506040840151601f1980858403016060860152612bed8383612abd565b9250606086015191508085840301608086015250612c0b8282612abd565b915050608084015160a08401528091505092915050565b80356001600160a01b0381168114612c3957600080fd5b919050565b60008060408385031215612c5157600080fd5b612c5a83612c22565b946020939093013593505050565b60008060408385031215612c7b57600080fd5b50508035926020909101359150565b600060208284031215612c9c57600080fd5b612ca582612c22565b9392505050565b60006101008251845260018060a01b0360208401511660208501526040830151816040860152612cde82860182612abd565b91505060608301518482036060860152612cf88282612abd565b9150506080830151608085015260a083015160a085015260c0830151612d2160c0860182612b19565b5060e083015160e08501528091505092915050565b6000602080830181845280855180835260408601915060408160051b870101925083870160005b82811015612d8b57603f19888603018452612d79858351612cac565b94509285019290850190600101612d5d565b5092979650505050505050565b60008083601f840112612daa57600080fd5b50813567ffffffffffffffff811115612dc257600080fd5b602083019150836020828501011115612dda57600080fd5b9250929050565b60008060008060408587031215612df757600080fd5b843567ffffffffffffffff80821115612e0f57600080fd5b612e1b88838901612d98565b90965094506020870135915080821115612e3457600080fd5b50612e4187828801612d98565b95989497509550505050565b803560058110612c3957600080fd5b60008060408385031215612e6f57600080fd5b612c5a83612e4d565b600060208284031215612e8a57600080fd5b612ca582612e4d565b602081526000612ca56020830184612cac565b600080600060408486031215612ebb57600080fd5b83359250602084013567ffffffffffffffff811115612ed957600080fd5b612ee586828701612d98565b9497909650939450505050565b85815260a060208201526000612f0b60a0830187612abd565b8281036040840152612f1d8187612abd565b90508281036060840152612f318186612abd565b9150508260808301529695505050505050565b600181811c90821680612f5857607f821691505b602082108103612f7857634e487b7160e01b600052602260045260246000fd5b50919050565b60208082526017908201527f50726f706f73616c20646f6573206e6f74206578697374000000000000000000604082015260600190565b634e487b7160e01b600052601160045260246000fd5b80820180821115611a8057611a80612fb5565b634e487b7160e01b600052604160045260246000fd5b634e487b7160e01b600052603260045260246000fd5b60006001820161301c5761301c612fb5565b5060010190565b60208082526014908201527350726f706f73616c206e6f742070656e64696e6760601b604082015260600190565b601f8211156120da57600081815260208120601f850160051c810160208610156130785750805b601f850160051c820191505b8181101561309757828155600101613084565b505050505050565b815167ffffffffffffffff8111156130b9576130b9612fde565b6130cd816130c78454612f44565b84613051565b602080601f83116001811461310257600084156130ea5750858301515b600019600386901b1c1916600185901b178555613097565b600085815260208120601f198616915b8281101561313157888601518255948401946001909101908401613112565b508582101561314f5787850151600019600388901b60f8161c191681555b5050505050600190811b01905550565b60208152816020820152818360408301376000818301604090810191909152601f909201601f19160101919050565b81810381811115611a8057611a80612fb5565b7f417070726f76652071756572792070726f706f73616c2023000000000000000081528260188201526a0103bb4ba341029a8a61d160ad1b603882015260006043600084546131ef81612f44565b60018281168015613207576001811461322057613253565b60ff198416888701528215158302880186019450613253565b8860005260208060002060005b858110156132485781548b82018a015290840190820161322d565b505050858389010194505b509298975050505050505050565b600081518084526020808501808196508360051b8101915082860160005b858110156132a9578284038952613297848351612abd565b9885019893509084019060010161327f565b5091979650505050505050565b6080808252855190820181905260009060209060a0840190828901845b828110156132f85781516001600160a01b0316845292840192908401906001016132d3565b5050508381038285015286518082528783019183019060005b8181101561332d57835183529284019291840191600101613311565b505084810360408601526133418188613261565b9250505082810360608401526133578185612abd565b979650505050505050565b60006020828403121561337457600080fd5b5051919050565b634e487b7160e01b600052603160045260246000fdfea2646970667358221220759077f20cdc4a4d2aa81f3f77374aa8ae93ab814d91891064431722719d7dfc64736f6c63430008140033",
  "devdoc": {
    "errors": {
      "EnforcedPause()": [
        {
          "details": "The operation failed because the contract is paused."
        }
      ],
      "ExpectedPause()": [
        {
          "details": "The operation failed because the contract is not paused."
        }
      ],
      "OwnableInvalidOwner(address)": [
        {
          "details": "The owner is not a valid owner account. (eg. `address(0)`)"
        }
      ],
      "OwnableUnauthorizedAccount(address)": [
        {
          "details": "The caller account is not authorized to perform an operation."
        }
      ],
      "ReentrancyGuardReentrantCall()": [
        {
          "details": "Unauthorized reentrant call."
        }
      ]
    },
    "events": {
      "Paused(address)": {
        "details": "Emitted when the pause is triggered by `account`."
      },
      "Unpaused(address)": {
        "details": "Emitted when the pause is lifted by `account`."
      }
    },
    "kind": "dev",
    "methods": {
      "owner()": {
        "details": "Returns the address of the current owner."
      },
      "paused()": {
        "details": "Returns true if the contract is paused, and false otherwise."
      },
      "renounceOwnership()": {
        "details": "Leaves the contract without owner. It will not be possible to call `onlyOwner` functions. Can only be called by the current owner. NOTE: Renouncing ownership will leave the contract without an owner, thereby disabling any functionality that is only available to the owner."
      },
      "transferOwnership(address)": {
        "details": "Transfers ownership of the contract to a new account (`newOwner`). Can only be called by the current owner."
      }
    },
    "version": 1
  },
  "userdoc": {
    "kind": "user",
    "methods": {},
    "version": 1
  },
  "storageLayout": {
    "storage": [
      {
        "astId": 7389,
        "contract": "contracts/Vault.sol:Vault",
        "label": "_status",
        "offset": 0,
        "slot": "0",
        "type": "t_uint256"
      },
      {
        "astId": 7279,
        "contract": "contracts/Vault.sol:Vault",
        "label": "_paused",
        "offset": 0,
        "slot": "1",
        "type": "t_bool"
      },
      {
        "astId": 387,
        "contract": "contracts/Vault.sol:Vault",
        "label": "_owner",
        "offset": 1,
        "slot": "1",
        "type": "t_address"
      },
      {
        "astId": 15784,
        "contract": "contracts/Vault.sol:Vault",
        "label": "proposalCounter",
        "offset": 0,
        "slot": "2",
        "type": "t_uint256"
      },
      {
        "astId": 15786,
        "contract": "contracts/Vault.sol:Vault",
        "label": "appId",
        "offset": 0,
        "slot": "3",
        "type": "t_bytes21"
      },
      {
        "astId": 15788,
        "contract": "contracts/Vault.sol:Vault",
        "label": "defaultExpirationPeriod",
        "offset": 0,
        "slot": "4",
        "type": "t_uint256"
      },
      {
        "astId": 15791,
        "contract": "contracts/Vault.sol:Vault",
        "label": "governor",
        "offset": 0,
        "slot": "5",
        "type": "t_contract(IGovernor)2811"
      },
      {
        "astId": 15796,
        "contract": "contracts/Vault.sol:Vault",
        "label": "proposals",
        "offset": 0,
        "slot": "6",
        "type": "t_mapping(t_uint256,t_struct(QueryProposal)15771_storage)"
      },
      {
        "astId": 15802,
        "contract": "contracts/Vault.sol:Vault",
        "label": "proposalsByStatus",
        "offset": 0,
        "slot": "7",
        "type": "t_mapping(t_enum(ProposalStatus)15753,t_array(t_uint256)dyn_storage)"
      },
      {
        "astId": 15807,
        "contract": "contracts/Vault.sol:Vault",
        "label": "userProposals",
        "offset": 0,
        "slot": "8",
        "type": "t_mapping(t_address,t_array(t_uint256)dyn_storage)"
      },
      {
        "astId": 15812,
        "contract": "contracts/Vault.sol:Vault",
        "label": "completedQueries",
        "offset": 0,
        "slot": "9",
        "type": "t_mapping(t_uint256,t_struct(CompletedQuery)15782_storage)"
      },
      {
        "astId": 15816,
        "contract": "contracts/Vault.sol:Vault",
        "label": "governanceProposalsExecuted",
        "offset": 0,
        "slot": "10",
        "type": "t_mapping(t_uint256,t_bool)"
      }
    ],
    "types": {
      "t_address": {
        "encoding": "inplace",
        "label": "address",
        "numberOfBytes": "20"
      },
      "t_array(t_uint256)dyn_storage": {
        "base": "t_uint256",
        "encoding": "dynamic_array",
        "label": "uint256[]",
        "numberOfBytes": "32"
      },
      "t_bool": {
        "encoding": "inplace",
        "label": "bool",
        "numberOfBytes": "1"
      },
      "t_bytes21": {
        "encoding": "inplace",
        "label": "bytes21",
        "numberOfBytes": "21"
      },
      "t_contract(IGovernor)2811": {
        "encoding": "inplace",
        "label": "contract IGovernor",
        "numberOfBytes": "20"
      },
      "t_enum(ProposalStatus)15753": {
        "encoding": "inplace",
        "label": "enum Vault.ProposalStatus",
        "numberOfBytes": "1"
      },
      "t_mapping(t_address,t_array(t_uint256)dyn_storage)": {
        "encoding": "mapping",
        "key": "t_address",
        "label": "mapping(address => uint256[])",
        "numberOfBytes": "32",
        "value": "t_array(t_uint256)dyn_storage"
      },
      "t_mapping(t_enum(ProposalStatus)15753,t_array(t_uint256)dyn_storage)": {
        "encoding": "mapping",
        "key": "t_enum(ProposalStatus)15753",
        "label": "mapping(enum Vault.ProposalStatus => uint256[])",
        "numberOfBytes": "32",
        "value": "t_array(t_uint256)dyn_storage"
      },
      "t_mapping(t_uint256,t_bool)": {
        "encoding": "mapping",
        "key": "t_uint256",
        "label": "mapping(uint256 => bool)",
        "numberOfBytes": "32",
        "value": "t_bool"
      },
      "t_mapping(t_uint256,t_struct(CompletedQuery)15782_storage)": {
        "encoding": "mapping",
        "key": "t_uint256",
        "label": "mapping(uint256 => struct Vault.CompletedQuery)",
        "numberOfBytes": "32",
        "value": "t_struct(CompletedQuery)15782_storage"
      },
      "t_mapping(t_uint256,t_struct(QueryProposal)15771_storage)": {
        "encoding": "mapping",
        "key": "t_uint256",
        "label": "mapping(uint256 => struct Vault.QueryProposal)",
        "numberOfBytes": "32",
        "value": "t_struct(QueryProposal)15771_storage"
      },
      "t_string_storage": {
        "encoding": "bytes",
        "label": "string",
        "numberOfBytes": "32"
      },
      "t_struct(CompletedQuery)15782_storage": {
        "encoding": "inplace",
        "label": "struct Vault.CompletedQuery",
        "members": [
          {
            "astId": 15773,
            "contract": "contracts/Vault.sol:Vault",
            "label": "proposalId",
            "offset": 0,
            "slot": "0",
            "type": "t_uint256"
          },
          {
            "astId": 15775,
            "contract": "contracts/Vault.sol:Vault",
            "label": "originalQuery",
            "offset": 0,
            "slot": "1",
            "type": "t_string_storage"
          },
          {
            "astId": 15777,
            "contract": "contracts/Vault.sol:Vault",
            "label": "publicKey",
            "offset": 0,
            "slot": "2",
            "type": "t_string_storage"
          },
          {
            "astId": 15779,
            "contract": "contracts/Vault.sol:Vault",
            "label": "encryptedResult",
            "offset": 0,
            "slot": "3",
            "type": "t_string_storage"
          },
          {
            "astId": 15781,
            "contract": "contracts/Vault.sol:Vault",
            "label": "completedTimestamp",
            "offset": 0,
            "slot": "4",
            "type": "t_uint256"
          }
        ],
        "numberOfBytes": "160"
      },
      "t_struct(QueryProposal)15771_storage": {
        "encoding": "inplace",
        "label": "struct Vault.QueryProposal",
        "members": [
          {
            "astId": 15755,
            "contract": "contracts/Vault.sol:Vault",
            "label": "id",
            "offset": 0,
            "slot": "0",
            "type": "t_uint256"
          },
          {
            "astId": 15757,
            "contract": "contracts/Vault.sol:Vault",
            "label": "requester",
            "offset": 0,
            "slot": "1",
            "type": "t_address"
          },
          {
            "astId": 15759,
            "contract": "contracts/Vault.sol:Vault",
            "label": "sqlQuery",
            "offset": 0,
            "slot": "2",
            "type": "t_string_storage"
          },
          {
            "astId": 15761,
            "contract": "contracts/Vault.sol:Vault",
            "label": "publicKey",
            "offset": 0,
            "slot": "3",
            "type": "t_string_storage"
          },
          {
            "astId": 15763,
            "contract": "contracts/Vault.sol:Vault",
            "label": "timestamp",
            "offset": 0,
            "slot": "4",
            "type": "t_uint256"
          },
          {
            "astId": 15765,
            "contract": "contracts/Vault.sol:Vault",
            "label": "expirationTime",
            "offset": 0,
            "slot": "5",
            "type": "t_uint256"
          },
          {
            "astId": 15768,
            "contract": "contracts/Vault.sol:Vault",
            "label": "status",
            "offset": 0,
            "slot": "6",
            "type": "t_enum(ProposalStatus)15753"
          },
          {
            "astId": 15770,
            "contract": "contracts/Vault.sol:Vault",
            "label": "governanceProposalId",
            "offset": 0,
            "slot": "7",
            "type": "t_uint256"
          }
        ],
        "numberOfBytes": "256"
      },
      "t_uint256": {
        "encoding": "inplace",
        "label": "uint256",
        "numberOfBytes": "32"
      }
    }
  }
}