{
  "address": "0x68B1D87F95878fE05B998F19b66F4baba5De1aed",
  "abi": [
    {
      "anonymous": false,
      "inputs": [
        {
          "indexed": true,
          "internalType": "address",
          "name": "creator",
          "type": "address"
        },
        {
          "indexed": true,
          "internalType": "string",
          "name": "name",
          "type": "string"
        },
        {
          "indexed": false,
          "internalType": "uint256",
          "name": "index",
          "type": "uint256"
        }
      ],
      "name": "SecretCreated",
      "type": "event"
    },
    {
      "inputs": [
        {
          "internalType": "address",
          "name": "",
          "type": "address"
        }
      ],
      "name": "_lastSeen",
      "outputs": [
        {
          "internalType": "uint256",
          "name": "",
          "type": "uint256"
        }
      ],
      "stateMutability": "view",
      "type": "function"
    },
    {
      "inputs": [
        {
          "internalType": "uint256",
          "name": "",
          "type": "uint256"
        }
      ],
      "name": "_metas",
      "outputs": [
        {
          "internalType": "address",
          "name": "creator",
          "type": "address"
        },
        {
          "internalType": "string",
          "name": "name",
          "type": "string"
        },
        {
          "internalType": "uint256",
          "name": "longevity",
          "type": "uint256"
        }
      ],
      "stateMutability": "view",
      "type": "function"
    },
    {
      "inputs": [
        {
          "internalType": "string",
          "name": "name",
          "type": "string"
        },
        {
          "internalType": "uint256",
          "name": "longevity",
          "type": "uint256"
        },
        {
          "internalType": "bytes",
          "name": "secret",
          "type": "bytes"
        }
      ],
      "name": "createSecret",
      "outputs": [],
      "stateMutability": "nonpayable",
      "type": "function"
    },
    {
      "inputs": [
        {
          "internalType": "address",
          "name": "owner",
          "type": "address"
        }
      ],
      "name": "getLastSeen",
      "outputs": [
        {
          "internalType": "uint256",
          "name": "",
          "type": "uint256"
        }
      ],
      "stateMutability": "view",
      "type": "function"
    },
    {
      "inputs": [
        {
          "internalType": "uint256",
          "name": "offset",
          "type": "uint256"
        },
        {
          "internalType": "uint256",
          "name": "count",
          "type": "uint256"
        }
      ],
      "name": "getMetas",
      "outputs": [
        {
          "components": [
            {
              "internalType": "address",
              "name": "creator",
              "type": "address"
            },
            {
              "internalType": "string",
              "name": "name",
              "type": "string"
            },
            {
              "internalType": "uint256",
              "name": "longevity",
              "type": "uint256"
            }
          ],
          "internalType": "struct Vigil.SecretMetadata[]",
          "name": "",
          "type": "tuple[]"
        }
      ],
      "stateMutability": "view",
      "type": "function"
    },
    {
      "inputs": [],
      "name": "refreshSecrets",
      "outputs": [],
      "stateMutability": "nonpayable",
      "type": "function"
    },
    {
      "inputs": [
        {
          "internalType": "uint256",
          "name": "index",
          "type": "uint256"
        }
      ],
      "name": "revealSecret",
      "outputs": [
        {
          "internalType": "bytes",
          "name": "",
          "type": "bytes"
        }
      ],
      "stateMutability": "view",
      "type": "function"
    }
  ],
  "transactionHash": "0x291877cf6bc0e3a809f396beb3be8073ab3e1060a713bc9b5b6adada7ac360f3",
  "args": [],
  "numDeployments": 1,
  "solcInputHash": "6552efb4d02d8116bb9609a0a78bb4eb",
  "bytecode": "0x608060405234801561001057600080fd5b50610cb6806100206000396000f3fe608060405234801561001057600080fd5b506004361061007d5760003560e01c806388193a251161005b57806388193a25146100f757806397513690146100ff57806398df67c61461011f578063cafc24ff1461013f57600080fd5b8063413c0fd8146100825780634aec3a321461009757806361b94576146100c0575b600080fd5b6100956100903660046107e7565b610161565b005b6100aa6100a5366004610861565b6102ce565b6040516100b791906108c9565b60405180910390f35b6100e96100ce366004610955565b6001600160a01b031660009081526002602052604090205490565b6040519081526020016100b7565b61009561050b565b6100e961010d366004610955565b60026020526000908152604090205481565b61013261012d366004610985565b610524565b6040516100b7919061099e565b61015261014d366004610985565b6106d6565b6040516100b7939291906109b1565b610178336000908152600260205260409020429055565b60006040518060600160405280336001600160a01b0316815260200187878080601f0160208091040260200160405190810160405280939291908181526020018383808284376000920182905250938552505050602091820187905283546001808201865594825290829020835160039092020180546001600160a01b0319166001600160a01b0390921691909117815590820151919290919082019061021f9082610a84565b50604091909101516002909101556001805480820182556000919091527fb10e2d527612073b26eecdfd717e6a320cf44b4afac2b0732d9fcbe2b7fa0cf601610269828483610b44565b50848460405161027a929190610c05565b60405190819003902060005433907f12a499eb02c8cf9494d3a624d30d5f39809807866252f6783a9ad28431d52e95906102b690600190610c2b565b60405190815260200160405180910390a35050505050565b6000546060908310610338576040805160008082526020820190925290610330565b61031d604051806060016040528060006001600160a01b0316815260200160608152602001600081525090565b8152602001906001900390816102f05790505b509050610505565b600080546103468486610c3e565b111561035f5760005461035a908590610c2b565b610361565b825b905060008167ffffffffffffffff81111561037e5761037e6109e5565b6040519080825280602002602001820160405280156103dc57816020015b6103c9604051806060016040528060006001600160a01b0316815260200160608152602001600081525090565b81526020019060019003908161039c5790505b50905060005b828110156105005760006103f68288610c3e565b8154811061040657610406610c51565b6000918252602091829020604080516060810190915260039092020180546001600160a01b031682526001810180549293919291840191610446906109fb565b80601f0160208091040260200160405190810160405280929190818152602001828054610472906109fb565b80156104bf5780601f10610494576101008083540402835291602001916104bf565b820191906000526020600020905b8154815290600101906020018083116104a257829003601f168201915b505050505081526020016002820154815250508282815181106104e4576104e4610c51565b6020026020010181905250806104f990610c67565b90506103e2565b509150505b92915050565b610522336000908152600260205260409020429055565b565b600054606090821061056e5760405162461bcd60e51b815260206004820152600e60248201526d1b9bc81cdd58da081cd958dc995d60921b60448201526064015b60405180910390fd5b600080838154811061058257610582610c51565b6000918252602082206003909102015481546001600160a01b0390911692508190859081106105b3576105b3610c51565b6000918252602080832060026003909302018201546001600160a01b03861684529190526040909120546105e79190610c3e565b9050804210156106275760405162461bcd60e51b815260206004820152600b60248201526a1b9bdd08195e1c1a5c995960aa1b6044820152606401610565565b6001848154811061063a5761063a610c51565b90600052602060002001805461064f906109fb565b80601f016020809104026020016040519081016040528092919081815260200182805461067b906109fb565b80156106c85780601f1061069d576101008083540402835291602001916106c8565b820191906000526020600020905b8154815290600101906020018083116106ab57829003601f168201915b505050505092505050919050565b600081815481106106e657600080fd5b6000918252602090912060039091020180546001820180546001600160a01b03909216935090610715906109fb565b80601f0160208091040260200160405190810160405280929190818152602001828054610741906109fb565b801561078e5780601f106107635761010080835404028352916020019161078e565b820191906000526020600020905b81548152906001019060200180831161077157829003601f168201915b5050505050908060020154905083565b60008083601f8401126107b057600080fd5b50813567ffffffffffffffff8111156107c857600080fd5b6020830191508360208285010111156107e057600080fd5b9250929050565b6000806000806000606086880312156107ff57600080fd5b853567ffffffffffffffff8082111561081757600080fd5b61082389838a0161079e565b909750955060208801359450604088013591508082111561084357600080fd5b506108508882890161079e565b969995985093965092949392505050565b6000806040838503121561087457600080fd5b50508035926020909101359150565b6000815180845260005b818110156108a95760208185018101518683018201520161088d565b506000602082860101526020601f19601f83011685010191505092915050565b60006020808301818452808551808352604092508286019150828160051b87010184880160005b8381101561094757888303603f19018552815180516001600160a01b031684528781015160608986018190529061092982870182610883565b928901519589019590955250948701949250908601906001016108f0565b509098975050505050505050565b60006020828403121561096757600080fd5b81356001600160a01b038116811461097e57600080fd5b9392505050565b60006020828403121561099757600080fd5b5035919050565b60208152600061097e6020830184610883565b6001600160a01b03841681526060602082018190526000906109d590830185610883565b9050826040830152949350505050565b634e487b7160e01b600052604160045260246000fd5b600181811c90821680610a0f57607f821691505b602082108103610a2f57634e487b7160e01b600052602260045260246000fd5b50919050565b601f821115610a7f57600081815260208120601f850160051c81016020861015610a5c5750805b601f850160051c820191505b81811015610a7b57828155600101610a68565b5050505b505050565b815167ffffffffffffffff811115610a9e57610a9e6109e5565b610ab281610aac84546109fb565b84610a35565b602080601f831160018114610ae75760008415610acf5750858301515b600019600386901b1c1916600185901b178555610a7b565b600085815260208120601f198616915b82811015610b1657888601518255948401946001909101908401610af7565b5085821015610b345787850151600019600388901b60f8161c191681555b5050505050600190811b01905550565b67ffffffffffffffff831115610b5c57610b5c6109e5565b610b7083610b6a83546109fb565b83610a35565b6000601f841160018114610ba45760008515610b8c5750838201355b600019600387901b1c1916600186901b178355610bfe565b600083815260209020601f19861690835b82811015610bd55786850135825560209485019460019092019101610bb5565b5086821015610bf25760001960f88860031b161c19848701351681555b505060018560011b0183555b5050505050565b8183823760009101908152919050565b634e487b7160e01b600052601160045260246000fd5b8181038181111561050557610505610c15565b8082018082111561050557610505610c15565b634e487b7160e01b600052603260045260246000fd5b600060018201610c7957610c79610c15565b506001019056fea2646970667358221220d9e8a9d8a9c1345315de5094e2bd9823c051ca8330eaf88d739ab233405320f664736f6c63430008140033",
  "devdoc": {
    "kind": "dev",
    "methods": {},
    "stateVariables": {
      "_lastSeen": {
        "details": "The unix timestamp at which the address was last seen."
      }
    },
    "version": 1
  },
  "userdoc": {
    "kind": "user",
    "methods": {
      "getLastSeen(address)": {
        "notice": "Return the time (in seconds since the epoch) at which the owner was last seen, or zero if never seen."
      },
      "revealSecret(uint256)": {
        "notice": "Reveal the secret at the specified index."
      }
    },
    "version": 1
  },
  "storageLayout": {
    "storage": [
      {
        "astId": 21,
        "contract": "contracts/Vigil.sol:Vigil",
        "label": "_metas",
        "offset": 0,
        "slot": "0",
        "type": "t_array(t_struct(SecretMetadata)9_storage)dyn_storage"
      },
      {
        "astId": 24,
        "contract": "contracts/Vigil.sol:Vigil",
        "label": "_secrets",
        "offset": 0,
        "slot": "1",
        "type": "t_array(t_bytes_storage)dyn_storage"
      },
      {
        "astId": 29,
        "contract": "contracts/Vigil.sol:Vigil",
        "label": "_lastSeen",
        "offset": 0,
        "slot": "2",
        "type": "t_mapping(t_address,t_uint256)"
      }
    ],
    "types": {
      "t_address": {
        "encoding": "inplace",
        "label": "address",
        "numberOfBytes": "20"
      },
      "t_array(t_bytes_storage)dyn_storage": {
        "base": "t_bytes_storage",
        "encoding": "dynamic_array",
        "label": "bytes[]",
        "numberOfBytes": "32"
      },
      "t_array(t_struct(SecretMetadata)9_storage)dyn_storage": {
        "base": "t_struct(SecretMetadata)9_storage",
        "encoding": "dynamic_array",
        "label": "struct Vigil.SecretMetadata[]",
        "numberOfBytes": "32"
      },
      "t_bytes_storage": {
        "encoding": "bytes",
        "label": "bytes",
        "numberOfBytes": "32"
      },
      "t_mapping(t_address,t_uint256)": {
        "encoding": "mapping",
        "key": "t_address",
        "label": "mapping(address => uint256)",
        "numberOfBytes": "32",
        "value": "t_uint256"
      },
      "t_string_storage": {
        "encoding": "bytes",
        "label": "string",
        "numberOfBytes": "32"
      },
      "t_struct(SecretMetadata)9_storage": {
        "encoding": "inplace",
        "label": "struct Vigil.SecretMetadata",
        "members": [
          {
            "astId": 3,
            "contract": "contracts/Vigil.sol:Vigil",
            "label": "creator",
            "offset": 0,
            "slot": "0",
            "type": "t_address"
          },
          {
            "astId": 5,
            "contract": "contracts/Vigil.sol:Vigil",
            "label": "name",
            "offset": 0,
            "slot": "1",
            "type": "t_string_storage"
          },
          {
            "astId": 8,
            "contract": "contracts/Vigil.sol:Vigil",
            "label": "longevity",
            "offset": 0,
            "slot": "2",
            "type": "t_uint256"
          }
        ],
        "numberOfBytes": "96"
      },
      "t_uint256": {
        "encoding": "inplace",
        "label": "uint256",
        "numberOfBytes": "32"
      }
    }
  }
}